S01200004370704C6962726172792E737265631A
S214080000102607201503080011030800110308002E
S214080010110308001103080011030800000000007F
S21408002000000000000000000000000011030800A7
S214080030110308000000000011030800110308005F
S2140800401103080011030800110308001103080033
S2140800501103080011030800110308001103080023
S214080060110308001103080000000000C102080080
S214080070D5020800E9020800FD020800000000009A
S214080080000000001103080011030800110308000F
S21408009011030800110308001103080011030800E3
S2140800A011030800000000001103080011030800EF
S2140800B011030800110308001103080011030800C3
S2140800C011030800110308001103080011030800B3
S2140800D011030800110308001103080011030800A3
S2140800E01103080011030800110308001103080093
S2140800F01103080010B5054C237833B9044B13B127
S2140801000448AFF300800123237010BD5C05072068
S21408011000000000BC0508000C4B43B10C4810B5A5
S2140801200C49AFF300800C48036823B910BD0A4891
S214080130036833B97047094B002BF7D0BDE8104069
S2140801401847064B002BF5D0184700BF00000000E4
S214080150BC05080060050720BC0508000000000074
S214080160082303602023036004230360704700000D
S2140801702A4B994249D8A3F57A5399422BD910B4F9
S214080180274CA4FB0234A40B043C264B0B449B00D0
S214080190B2FBF3F2043AFF2C39D900210131640886
S2140801A0FF2C0DD90729F9D113029BB2090401F4D3
S2140801B0E0210B43E4B223430361002010BC7047E0
S2140801C0FF2AF1D90629EFD801315208FF2AEBD9C0
S2140801D00629F9D9E8E74900B2FBF1F2043AFF2A02
S2140801E011D9002301335208FF2A01D9072BF9D168
S2140801F0110289B21B0403F4E0230B43D2B21A435C
S2140802000261002070470023F2E701207047FF2AAA
S21408021088BF0021D8D80021C6E700BF801A06008C
S214080220F11976050012FD3F38B504460D464FF025
S214080230FF338362036A80230360036B082303602B
S21408024020230360042303600A684968054B98471F
S214080250012814BF002001206B7A012B04BF40231D
S214080260236038BD71010800C06C7047806C704709
S2140802702DE9F041044688460E4B98470546204629
S2140802800D4B9847054013D00C4C04F1600603E06C
S214080290B4420DD010345DB120684045F8D161688D
S2140802A02942F5D0E3689847636825EA0305EFE72F
S2140802B0BDE8F081690208006D020800780507208D
S2140802C008B50B210148024B984708BD000E0E40A2
S2140802D07102080008B50C210148024B984708BD72
S2140802E000100E407102080008B50D210148024BA7
S2140802F0984708BD00120E407102080008B50E2186
S2140803000148024B984708BD00140E4071020800C9
S214080310FEE7000008B51C4B1C4A9A4210D01C4B3E
S214080320194A9A420CD2013B9B1A23F00303043362
S2140803301344164951F8040B42F8040B9A42F9D1B3
S214080340144B154A9A420AD2013B9B1A23F0030320
S21408035004331344002142F8041B9342FBD10F4B8D
S21408036023F0604222F07F020D498A6003F1604361
S214080370B3F5801F03D28B6843F000538B60094B9C
S2140803809847094B9847FEE700000720BC05080079
S2140803905C0507200C0607205C05072000000800FF
S2140803A000ED00E025040800AD03080000B585B0A0
S2140803B0154B9847154B00221A61C3F800211449BB
S2140803C0029127218DF80C10124901918DF80D2005
S2140803D01A6942F480021A6103F500631A6F42F440
S2140803E0C0221A671A6842F4C0221A605A6E42F48B
S2140803F0C0225A66084C2046084B984701A9204652
S214080400074B9847FEE700BF0100072000060E408E
S214080410A086010000BD010500C008406101080073
S2140804202902080070B50F4E0F4D761BB61018BF80
S214080430002405D0013455F8043B9847A642F9D164
S2140804400A4E0B4D00F0A8F8761BB61018BF00240D
S21408045006D0013455F8043B9847A642F9D170BD3A
S21408046070BD00BFA4050800A4050800AC05080078
S214080470A4050800024B13B1024800F005B87047FF
S2140804800000000095040800002301461A46184696
S21408049000F01EB838B50A4C0A4D641BA4100AD0E2
S2140804A004F18043013B05EB8305013C55F804390C
S2140804B09847002CF9D1BDE8384000F077B800BF5F
S2140804C0BC050800B8050800704700BF704700BFA5
S2140804D02DE9F8432C4D0646286898460F4691465F
S2140804E0FFF7F2FF294B1C68D4F84831002B3ED0A2
S2140804F05A681F2A1CDC02F1010E76B1012103EBB3
S2140805008204C4F88890D3F8880191400843022EE4
S214080510C3F88801C4F8088123D00232C3F804E07F
S214080520286843F82270FFF7D1FF0020BDE8F8835B
S214080530174B0BB34FF4C870AFF300800346D8B11F
S2140805400020D4F848114FF0010E58601960024692
S214080550C4F84831C3F88801C3F88C01002EDCD0F3
S214080560CCE7D3F88C010143C3F88C11D5E704F522
S214080570A673C4F84831BBE72868FFF7A7FF4FF013
S214080580FF30BDE8F88300BF58050720940508002B
S2140805900000000030010720F8B500BFF8BC08BC12
S2140805A09E4670477504080019010800F8B500BF94
S2100805B0F8BC08BC9E467047F500080022
S2140805BC4FF48063204A136002F5007213601F4BD9
S2140805CC1B6A13F0807F07D11D4A1C4B1A621A4609
S2140805DC936E13F0010FFBD01A4A184B1A621A4680
S2140805EC936E13F4803FFBD0144A136B23F003036B
S2140805FC43F001031363936E13F0080FFBD0124AF3
S21408060C0E4B9A621A46936E13F0020FFBD0112209
S21408061C0A4B1A631A46936E13F0080FFBD0122275
S21408062C064B1A631A46936E13F0080FFBD0074A4C
S21408063C074B1A60704700BF000A0E4000060E40B3
S21408064C0908370009083701013F0D2000BD0105D0
S21408065C2C0107201B4B984215D91B4B984219D9CD
S21408066C1A4B98421ED91A4B984223D9194B9842C2
S21408067C94BF4FF480634FF4A063174A136002F5D7
S21408068C0072136070470023134A136002F5007259
S21408069C136070474FF480730F4A136002F50072AC
S2140806AC136070474FF400730B4A136002F5007220
S2140806BC136070474FF44073074A136002F50072D4
S2140806CC13607047BFEA21017FF0FA02FF8FD00350
S2140806DCFFB3C4047F4A5D05000A0E4000093D00BE
S2140806EC000000001C04072084040720EC040720E4
S2140806FC00000000000000000000000000000000E1
S21408070C00000000000000000000000000000000D0
S21408071C00000000000000000000000000000000C0
S21408072C00000000000000000000000000000000B0
S21408073C00000000000000000000000000000000A0
S21408074C0000000000000000000000000000000090
S21408075C0000000000000000000000000000000080
S21408076C0000000000000000000000000000000070
S21408077C0000000000000000000000000000000060
S21408078C000000000000000001000000000000004F
S21408079C0E33CDAB34126DE6ECDE05000B00000014
S2140807AC0000000000000000000000000000000030
S2140807BC0000000000000000000000000000000020
S2140807CC0000000000000000000000000000000010
S2140807DC0000000000000000000000000000000000
S210080B0C0000000000000000E8050720BC
S804080315DB
