S01200004370704C6962726172792E737265631A
S214080000E0240720B1040800AD040800AD04080089
S214080010AD040800AD040800AD04080000000000A8
S214080020000000000000000000000000AD0408000A
S214080030AD04080000000000AD040800AD04080088
S214080040AD040800AD040800AD040800AD040800BF
S214080050AD040800AD040800AD040800AD040800AF
S214080060AD040800AD040800000000003D040800C8
S2140800705104080065040800790408000000000020
S21408008000000000AD040800AD040800AD04080038
S214080090AD040800AD040800AD040800AD0408006F
S2140800A0AD04080000000000AD040800AD04080018
S2140800B0AD040800AD040800AD040800AD0408004F
S2140800C0AD040800AD040800AD040800AD0408003F
S2140800D0AD040800AD040800AD040800AD0408002F
S2140800E0AD040800AD040800AD040800AD0408001F
S2140800F0AD04080010B5054C237833B9044B13B18A
S2140801000448AFF300800123237010BD2C04072099
S21408011000000000F00608000C4B43B10C4810B570
S2140801200C49AFF300800C48036823B910BD0A4891
S214080130036833B97047094B002BF7D0BDE8104069
S2140801401847064B002BF5D0184700BF00000000E4
S214080150F006080030040720F0060800000000003B
S21408016010B54FF40042164B5A600B20154CA047AA
S2140801700C20A0470D20A0470E20A0474FF0605146
S2140801803B20114CA0474FF060515520A0474FF038
S21408019060515620A0470D496820A0470C495C20AE
S2140801A0A0470C4A4FF440710B480C4B98474FF049
S2140801B000612B20A0474FF000612A20A04710BD01
S2140801C0501A0E408D0408008102080079000028A5
S2140801D00100002801000008000E0E405103080028
S2140801E04264B1F1805F16D00BD849B1B1F1006F07
S2140801F005D1036F016F0B4023EA020303674260D1
S2140802007047B1F1405FFBD0B1F1605FF8D0B1F153
S214080210205FF4D17047036F13430367EFE7416429
S21408022012F0010F14BF4166016612F00A0F14BFE0
S2140802300162416212F0020F07D112F0080F18BFD0
S214080240C0F88410416101607047C0F88010F9E773
S21408025010B4019C416444B9016643B1016542B9D2
S21408026041630161016010BC70474166F5E741656E
S214080270F5E70163F5E7C06C7047806C70470000CF
S21408028070B582B00D46430903F5001303F20773F1
S2140802905C0201F0F043B3F1205F31D016D8B3F119
S2140802A0006F1BD0B3F1805F16D100F01F00012647
S2140802B0864032464FF080512046224B984715F02C
S2140802C0010F14BF66662666012017E0B3F1405F8B
S2140802D021D0B3F1605F1ED000200FE000F01F00B1
S2140802E00126864032464FF000612046154B984757
S2140802F015F0010F14BF66662666012002B070BDB1
S21408030000F01F0101262A4606FA01F120460E4B88
S21408031098473046F2E705F0605200F01F010126C4
S21408032005EA06030093C5F38003B2F1605F14BFC5
S2140803300022012206FA01F12046044CA047304666
S214080340DCE700BFE10108001F02080051020800B0
S21408035070B582B005460E46144602F0F043B3F177
S214080360205F27D011D8B3F1006F16D0B3F1805FA5
S21408037011D10A464FF08051194B984714F0010FD7
S21408038014BF6E662E66012012E0B3F1405F15D0EA
S214080390B3F1605F12D000200AE00A464FF0006111
S2140803A00F4B984714F0010F14BF6E662E66012097
S2140803B002B070BD0B4B98470120F9E704F0605275
S2140803C004F001030093C4F38003B2F1605F14BF26
S2140803D00022012231462846034CA0470120E7E7C1
S2140803E0E10108001F020800510208002DE9F0414B
S2140803F0044688460E4B9847054620460D4B9847B8
S214080400054013D00C4C04F1600603E0B4420DD04E
S21408041010345DB120684045F8D161682942F5D0AE
S214080420E3689847636825EA0305EFE7BDE8F081C7
S214080430770208007B0208004804072008B50B214D
S2140804400148024B984708BD000E0E40ED03080011
S21408045008B50C210148024B984708BD00100E400D
S214080460ED03080008B50D210148024B984708BD62
S21408047000120E40ED03080008B50E210148024B95
S214080480984708BD00140E40ED03080000F07F00F2
S214080490054BC3F80C01D3F80C2142F01022C3F820
S2140804A00C210020704700BF00060E40FEE7000043
S2140804B008B51C4B1C4A9A4210D01C4B194A9A4243
S2140804C00CD2013B9B1A23F003030433134416494A
S2140804D051F8040B42F8040B9A42F9D1144B154A0A
S2140804E09A420AD2013B9B1A23F0030304331344AF
S2140804F0002142F8041B9342FBD10F4B23F06042C5
S21408050022F07F020D498A6003F16043B3F5801F2D
S21408051003D28B6843F000538B60094B9847094B0E
S2140805209847FEE700000720F00608002C0407207E
S214080530DC0407202C0407200000080000ED00E07B
S214080540590508004905080008B5024B98470020D9
S21408055008BD00BF6101080070B50F4E0F4D761B31
S214080560B61018BF002405D0013455F8043B984748
S214080570A642F9D10A4E0B4D00F0A8F8761BB61025
S21408058018BF002406D0013455F8043B9847A64205
S214080590F9D170BD70BD00BFD8060800D80608009F
S2140805A0E0060800D8060800024B13B1024800F01F
S2140805B005B8704700000000C9050800002301467A
S2140805C01A46184600F01EB838B50A4C0A4D641B81
S2140805D0A4100AD004F18043013B05EB8305013CD7
S2140805E055F804399847002CF9D1BDE8384000F092
S2140805F077B800BFF0060800EC060800704700BF92
S214080600704700BF2DE9F8432C4D064628689846E3
S2140806100F469146FFF7F2FF294B1C68D4F848317D
S214080620002B3ED05A681F2A1CDC02F1010E76B158
S214080630012103EB8204C4F88890D3F8880191401E
S2140806400843022EC3F88801C4F8088123D0023272
S214080650C3F804E0286843F82270FFF7D1FF0020AB
S214080660BDE8F883174B0BB34FF4C870AFF30080A0
S2140806700346D8B10020D4F848114FF0010E586050
S21408068019600246C4F84831C3F88801C3F88C01DB
S214080690002EDCD0CCE7D3F88C010143C3F88C11CC
S2140806A0D5E704F5A673C4F84831BBE72868FFF712
S2140806B0A7FF4FF0FF30BDE8F88300BF28040720E7
S2140806C0C80608000000000000000720F8B500BFB4
S2140806D0F8BC08BC9E467047A90508001901080022
S2140806E0F8B500BFF8BC08BC9E467047F500080081
S2140806F000000000EC02072054030720BC03072074
S21408070000000000000000000000000000000000DC
S21408071000000000000000000000000000000000CC
S21408072000000000000000000000000000000000BC
S21408073000000000000000000000000000000000AC
S214080740000000000000000000000000000000009C
S214080750000000000000000000000000000000008C
S214080760000000000000000000000000000000007C
S214080770000000000000000000000000000000006C
S214080780000000000000000000000000000000005C
S214080790000000000000000001000000000000004B
S2140807A00E33CDAB34126DE6ECDE05000B00000010
S2140807B0000000000000000000000000000000002C
S2140807C0000000000000000000000000000000001C
S2140807D0000000000000000000000000000000000C
S2140807E000000000000000000000000000000000FC
S210080B100000000000000000B8040720E9
S8040804B13E
